{"abi":[{"type":"constructor","inputs":[{"name":"_token1","type":"address","internalType":"address"},{"name":"_token2","type":"address","internalType":"address"},{"name":"_runTimestamp","type":"uint256","internalType":"uint256"},{"name":"_stopTimestamp","type":"uint256","internalType":"uint256"},{"name":"_maxShareholders","type":"uint256","internalType":"uint256"},{"name":"_manager","type":"address","internalType":"address"}],"stateMutability":"nonpayable"},{"type":"function","name":"calculateWithdrawalAmount","inputs":[{"name":"shareAmount","type":"uint256","internalType":"uint256"}],"outputs":[{"name":"withdrawalAmount","type":"uint256","internalType":"uint256"}],"stateMutability":"view"},{"type":"function","name":"deposit","inputs":[{"name":"amount","type":"uint256","internalType":"uint256"}],"outputs":[],"stateMutability":"nonpayable"},{"type":"function","name":"depositsClosed","inputs":[],"outputs":[{"name":"","type":"bool","internalType":"bool"}],"stateMutability":"view"},{"type":"function","name":"emergencyRecover","inputs":[{"name":"_token","type":"address","internalType":"address"},{"name":"_to","type":"address","internalType":"address"},{"name":"_amount","type":"uint256","internalType":"uint256"}],"outputs":[],"stateMutability":"nonpayable"},{"type":"function","name":"execute","inputs":[{"name":"target","type":"address","internalType":"address"},{"name":"data","type":"bytes","internalType":"bytes"}],"outputs":[{"name":"result","type":"bytes","internalType":"bytes"}],"stateMutability":"nonpayable"},{"type":"function","name":"getShareholderCount","inputs":[],"outputs":[{"name":"","type":"uint256","internalType":"uint256"}],"stateMutability":"view"},{"type":"function","name":"getShareholders","inputs":[],"outputs":[{"name":"","type":"address[]","internalType":"address[]"}],"stateMutability":"view"},{"type":"function","name":"getVaultState","inputs":[],"outputs":[{"name":"_totalShares","type":"uint256","internalType":"uint256"},{"name":"_totalBalance","type":"uint256","internalType":"uint256"},{"name":"_shareholderCount","type":"uint256","internalType":"uint256"},{"name":"_depositsClosed","type":"bool","internalType":"bool"},{"name":"_vaultClosed","type":"bool","internalType":"bool"}],"stateMutability":"view"},{"type":"function","name":"manager","inputs":[],"outputs":[{"name":"","type":"address","internalType":"address"}],"stateMutability":"view"},{"type":"function","name":"maxShareholders","inputs":[],"outputs":[{"name":"","type":"uint256","internalType":"uint256"}],"stateMutability":"view"},{"type":"function","name":"owner","inputs":[],"outputs":[{"name":"","type":"address","internalType":"address"}],"stateMutability":"view"},{"type":"function","name":"renounceOwnership","inputs":[],"outputs":[],"stateMutability":"nonpayable"},{"type":"function","name":"runTimestamp","inputs":[],"outputs":[{"name":"","type":"uint256","internalType":"uint256"}],"stateMutability":"view"},{"type":"function","name":"shareholders","inputs":[{"name":"","type":"uint256","internalType":"uint256"}],"outputs":[{"name":"","type":"address","internalType":"address"}],"stateMutability":"view"},{"type":"function","name":"shares","inputs":[{"name":"","type":"address","internalType":"address"}],"outputs":[{"name":"","type":"uint256","internalType":"uint256"}],"stateMutability":"view"},{"type":"function","name":"stopTimestamp","inputs":[],"outputs":[{"name":"","type":"uint256","internalType":"uint256"}],"stateMutability":"view"},{"type":"function","name":"token1","inputs":[],"outputs":[{"name":"","type":"address","internalType":"contract ERC20"}],"stateMutability":"view"},{"type":"function","name":"token2","inputs":[],"outputs":[{"name":"","type":"address","internalType":"contract ERC20"}],"stateMutability":"view"},{"type":"function","name":"totalShares","inputs":[],"outputs":[{"name":"","type":"uint256","internalType":"uint256"}],"stateMutability":"view"},{"type":"function","name":"transferOwnership","inputs":[{"name":"newOwner","type":"address","internalType":"address"}],"outputs":[],"stateMutability":"nonpayable"},{"type":"function","name":"updateVault","inputs":[{"name":"_token1","type":"address","internalType":"address"},{"name":"_token2","type":"address","internalType":"address"},{"name":"_runTimestamp","type":"uint256","internalType":"uint256"},{"name":"_stopTimestamp","type":"uint256","internalType":"uint256"},{"name":"_maxShareholders","type":"uint256","internalType":"uint256"}],"outputs":[],"stateMutability":"nonpayable"},{"type":"function","name":"vaultClosed","inputs":[],"outputs":[{"name":"","type":"bool","internalType":"bool"}],"stateMutability":"view"},{"type":"function","name":"withdraw","inputs":[],"outputs":[],"stateMutability":"nonpayable"},{"type":"event","name":"Deposited","inputs":[{"name":"shareholder","type":"address","indexed":true,"internalType":"address"},{"name":"amount","type":"uint256","indexed":false,"internalType":"uint256"},{"name":"shares","type":"uint256","indexed":false,"internalType":"uint256"}],"anonymous":false},{"type":"event","name":"DepositsClosed","inputs":[],"anonymous":false},{"type":"event","name":"ManagerCall","inputs":[{"name":"target","type":"address","indexed":true,"internalType":"address"},{"name":"data","type":"bytes","indexed":false,"internalType":"bytes"}],"anonymous":false},{"type":"event","name":"OwnershipTransferred","inputs":[{"name":"previousOwner","type":"address","indexed":true,"internalType":"address"},{"name":"newOwner","type":"address","indexed":true,"internalType":"address"}],"anonymous":false},{"type":"event","name":"VaultClosed","inputs":[],"anonymous":false},{"type":"event","name":"VaultUpdated","inputs":[{"name":"token1","type":"address","indexed":true,"internalType":"address"},{"name":"token2","type":"address","indexed":true,"internalType":"address"},{"name":"runTimestamp","type":"uint256","indexed":false,"internalType":"uint256"},{"name":"stopTimestamp","type":"uint256","indexed":false,"internalType":"uint256"},{"name":"maxShareholders","type":"uint256","indexed":false,"internalType":"uint256"}],"anonymous":false},{"type":"event","name":"Withdrawn","inputs":[{"name":"shareholder","type":"address","indexed":true,"internalType":"address"},{"name":"amount","type":"uint256","indexed":false,"internalType":"uint256"},{"name":"shares","type":"uint256","indexed":false,"internalType":"uint256"}],"anonymous":false},{"type":"error","name":"OwnableInvalidOwner","inputs":[{"name":"owner","type":"address","internalType":"address"}]},{"type":"error","name":"OwnableUnauthorizedAccount","inputs":[{"name":"account","type":"address","internalType":"address"}]},{"type":"error","name":"ReentrancyGuardReentrantCall","inputs":[]},{"type":"error","name":"SafeERC20FailedOperation","inputs":[{"name":"token","type":"address","internalType":"address"}]}],"bytecode":{"object":"0x60806040523461003657610020610014610167565b94939093929192610719565b61002861003b565b61351b6109b3823961351b90f35b610041565b60405190565b5f80fd5b601f801991011690565b634e487b7160e01b5f52604160045260245ffd5b9061006d90610045565b810190811060018060401b0382111761008557604052565b61004f565b9061009d61009661003b565b9283610063565b565b5f80fd5b60018060a01b031690565b6100b7906100a3565b90565b6100c3816100ae565b036100ca57565b5f80fd5b905051906100db826100ba565b565b90565b6100e9816100dd565b036100f057565b5f80fd5b90505190610101826100e0565b565b909160c0828403126101625761011b835f84016100ce565b9261012981602085016100ce565b9261013782604083016100f4565b9261015f61014884606085016100f4565b9361015681608086016100f4565b9360a0016100ce565b90565b61009f565b610185613ece8038038061017a8161008a565b928339810190610103565b909192939495565b90565b90565b6101a76101a26101ac9261018d565b610190565b6100a3565b90565b6101b890610193565b90565b60209181520190565b5f7f5661756c743a20496e76616c696420746f6b656e312061646472657373000000910152565b6101f8601d6020926101bb565b610201816101c4565b0190565b61021a9060208101905f8183039101526101eb565b90565b1561022457565b61022c61003b565b62461bcd60e51b81528061024260048201610205565b0390fd5b5f7f5661756c743a20496e76616c696420746f6b656e322061646472657373000000910152565b61027a601d6020926101bb565b61028381610246565b0190565b61029c9060208101905f81830391015261026d565b90565b156102a657565b6102ae61003b565b62461bcd60e51b8152806102c460048201610287565b0390fd5b60207f20646966666572656e7400000000000000000000000000000000000000000000917f5661756c743a20546f6b656e3120616e6420746f6b656e32206d7573742062655f8201520152565b610322602a6040926101bb565b61032b816102c8565b0190565b6103449060208101905f818303910152610315565b90565b1561034e57565b61035661003b565b62461bcd60e51b81528061036c6004820161032f565b0390fd5b60207f6675747572650000000000000000000000000000000000000000000000000000917f5661756c743a2052756e2074696d657374616d70206d75737420626520696e205f8201520152565b6103ca60266040926101bb565b6103d381610370565b0190565b6103ec9060208101905f8183039101526103bd565b90565b156103f657565b6103fe61003b565b62461bcd60e51b815280610414600482016103d7565b0390fd5b60207f7465722072756e2074696d657374616d70000000000000000000000000000000917f5661756c743a2053746f702074696d657374616d70206d7573742062652061665f8201520152565b61047260316040926101bb565b61047b81610418565b0190565b6104949060208101905f818303910152610465565b90565b1561049e57565b6104a661003b565b62461bcd60e51b8152806104bc6004820161047f565b0390fd5b6104d46104cf6104d99261018d565b610190565b6100dd565b90565b60207f67726561746572207468616e2030000000000000000000000000000000000000917f5661756c743a204d6178207368617265686f6c64657273206d757374206265205f8201520152565b610536602e6040926101bb565b61053f816104dc565b0190565b6105589060208101905f818303910152610529565b90565b1561056257565b61056a61003b565b62461bcd60e51b81528061058060048201610543565b0390fd5b5f7f5661756c743a20496e76616c6964206d616e6167657220616464726573730000910152565b6105b8601e6020926101bb565b6105c181610584565b0190565b6105da9060208101905f8183039101526105ab565b90565b156105e457565b6105ec61003b565b62461bcd60e51b815280610602600482016105c5565b0390fd5b61061a61061561061f926100a3565b610190565b6100a3565b90565b61062b90610606565b90565b61063790610622565b90565b5f1b90565b9061065060018060a01b039161063a565b9181191691161790565b61066390610622565b90565b90565b9061067e6106796106859261065a565b610666565b825461063f565b9055565b906106955f199161063a565b9181191691161790565b6106b36106ae6106b8926100dd565b610190565b6100dd565b90565b90565b906106d36106ce6106da9261069f565b6106bb565b8254610689565b9055565b6106e790610606565b90565b6106f3906106de565b90565b90565b9061070e610709610715926106ea565b6106f6565b825461063f565b9055565b9261083f6108549695936108386108316108469561082c61082561084d9a61074033610878565b6107658161075e6107586107535f6101af565b6100ae565b916100ae565b141561021d565b61078a8461078361077d6107785f6101af565b6100ae565b916100ae565b141561029f565b6107a7816107a061079a876100ae565b916100ae565b1415610347565b6107c3876107bd6107b7426100dd565b916100dd565b116103ef565b6107df896107d96107d38a6100dd565b916100dd565b11610497565b6107fb8b6107f56107ef5f6104c0565b916100dd565b1161055b565b6108208d61081961081361080e5f6101af565b6100ae565b916100ae565b14156105dd565b61062e565b6002610669565b61062e565b6003610669565b60046106be565b60056106be565b60066106be565b60076106f9565b565b61085f906100ae565b9052565b9190610876905f60208501940190610856565b565b6108806108d2565b8061089b6108956108905f6101af565b6100ae565b916100ae565b146108ab576108a990610951565b565b6108ce6108b75f6101af565b5f918291631e4fbdf760e01b835260048301610863565b0390fd5b6108da610908565b565b90565b6108f36108ee6108f8926108dc565b610190565b6100dd565b90565b61090560016108df565b90565b6109196109136108fb565b5f6106be565b565b5f1c90565b60018060a01b031690565b61093761093c9161091b565b610920565b90565b610949905461092b565b90565b5f0190565b61095b600161093f565b6109668260016106f9565b9061099a6109947f8be0079c531659141344cd1fd0a4f28419497f9722a3daafe3b4186f6b6457e0936106ea565b916106ea565b916109a361003b565b806109ad8161094c565b0390a356fe60806040526004361015610013575b610c44565b61001d5f3561018c565b806304972881146101875780630e1a039914610182578063105282941461017d5780631cff79cd1461017857806325be124e146101735780633a98ef391461016e5780633ccfd60b1461016957806341ca641e14610164578063481c6a751461015f5780634a8c110a1461015a5780635c9920fc14610155578063715018a614610150578063873239561461014b5780638da5cb5b146101465780639b185e0a14610141578063a369b0ac1461013c578063ab377daa14610137578063ad1329d114610132578063b6b55f251461012d578063c5a2221614610128578063ce7c2ac214610123578063d21220a71461011e5763f2fde38b0361000e57610c11565b610bdc565b610b98565b610b0a565b610ac8565b610a94565b610a25565b61097b565b610937565b6108f3565b6108be565b61087c565b610847565b6107bd565b610729565b610692565b6105c0565b61058b565b61051e565b61044b565b610318565b61024e565b6101d4565b60e01c90565b60405190565b5f80fd5b5f80fd5b5f9103126101aa57565b61019c565b90565b6101bb906101af565b9052565b91906101d2905f602085019401906101b2565b565b34610204576101e43660046101a0565b6102006101ef610c4c565b6101f7610192565b918291826101bf565b0390f35b610198565b5f80fd5b610216816101af565b0361021d57565b5f80fd5b9050359061022e8261020d565b565b9060208282031261024957610246915f01610221565b90565b61019c565b3461027e5761027a610269610264366004610230565b610dd3565b610271610192565b918291826101bf565b0390f35b610198565b60018060a01b031690565b61029790610283565b90565b6102a38161028e565b036102aa57565b5f80fd5b905035906102bb8261029a565b565b919060a08382031261030e576102d5815f85016102ae565b926102e382602083016102ae565b9261030b6102f48460408501610221565b936103028160608601610221565b93608001610221565b90565b61019c565b5f0190565b3461034a5761033461032b3660046102bd565b9392909261174a565b61033c610192565b8061034681610313565b0390f35b610198565b5f80fd5b5f80fd5b5f80fd5b909182601f830112156103955781359167ffffffffffffffff831161039057602001926001830284011161038b57565b610357565b610353565b61034f565b9190916040818403126103db576103b3835f83016102ae565b92602082013567ffffffffffffffff81116103d6576103d2920161035b565b9091565b610209565b61019c565b5190565b60209181520190565b90825f9392825e0152565b601f801991011690565b61042161042a60209361042f93610418816103e0565b938480936103e4565b958691016103ed565b6103f8565b0190565b6104489160208201915f818403910152610402565b90565b3461047c5761047861046761046136600461039a565b91611adc565b61046f610192565b91829182610433565b0390f35b610198565b1c90565b60018060a01b031690565b6104a09060086104a59302610481565b610485565b90565b906104b39154610490565b90565b6104c260035f906104a8565b90565b90565b6104dc6104d76104e192610283565b6104c5565b610283565b90565b6104ed906104c8565b90565b6104f9906104e4565b90565b610505906104f0565b9052565b919061051c905f602085019401906104fc565b565b3461054e5761052e3660046101a0565b61054a6105396104b6565b610541610192565b91829182610509565b0390f35b610198565b90565b61056690600861056b9302610481565b610553565b90565b906105799154610556565b90565b610588600a5f9061056e565b90565b346105bb5761059b3660046101a0565b6105b76105a661057c565b6105ae610192565b918291826101bf565b0390f35b610198565b346105ee576105d03660046101a0565b6105d8612605565b6105e0610192565b806105ea81610313565b0390f35b610198565b5190565b60209181520190565b60200190565b61060f9061028e565b9052565b9061062081602093610606565b0190565b60200190565b9061064761064161063a846105f3565b80936105f7565b92610600565b905f5b8181106106575750505090565b90919261067061066a6001928651610613565b94610624565b910191909161064a565b61068f9160208201915f81840391015261062a565b90565b346106c2576106a23660046101a0565b6106be6106ad6126c2565b6106b5610192565b9182918261067a565b0390f35b610198565b60018060a01b031690565b6106e29060086106e79302610481565b6106c7565b90565b906106f591546106d2565b90565b61070460075f906106ea565b90565b6107109061028e565b9052565b9190610727905f60208501940190610707565b565b34610759576107393660046101a0565b6107556107446106f8565b61074c610192565b91829182610714565b0390f35b610198565b151590565b61076c9061075e565b9052565b909594926107bb946107aa6107b4926107a060809661079660a088019c5f8901906101b2565b60208701906101b2565b60408501906101b2565b6060830190610763565b0190610763565b565b346107f1576107cd3660046101a0565b6107ed6107d86126fd565b916107e4959395610192565b95869586610770565b0390f35b610198565b60ff1690565b61080c9060086108119302610481565b6107f6565b90565b9061081f91546107fc565b90565b61082f600b600190610814565b90565b9190610845905f60208501940190610763565b565b34610877576108573660046101a0565b610873610862610822565b61086a610192565b91829182610832565b0390f35b610198565b346108aa5761088c3660046101a0565b610894612811565b61089c610192565b806108a681610313565b0390f35b610198565b6108bb60045f9061056e565b90565b346108ee576108ce3660046101a0565b6108ea6108d96108af565b6108e1610192565b918291826101bf565b0390f35b610198565b34610923576109033660046101a0565b61091f61090e61281f565b610916610192565b91829182610714565b0390f35b610198565b61093460065f9061056e565b90565b34610967576109473660046101a0565b610963610952610928565b61095a610192565b918291826101bf565b0390f35b610198565b610978600b5f90610814565b90565b346109ab5761098b3660046101a0565b6109a761099661096c565b61099e610192565b91829182610832565b0390f35b610198565b634e487b7160e01b5f52603260045260245ffd5b5490565b5f5260205f2090565b6109da816109c4565b8210156109f4576109ec6001916109c8565b910201905f90565b6109b0565b6009610a04816109c4565b821015610a2157610a1e91610a18916109d1565b906106ea565b90565b5f80fd5b34610a5557610a51610a40610a3b366004610230565b6109f9565b610a48610192565b91829182610714565b0390f35b610198565b9091606082840312610a8f57610a8c610a75845f85016102ae565b93610a8381602086016102ae565b93604001610221565b90565b61019c565b34610ac357610aad610aa7366004610a5a565b91612b80565b610ab5610192565b80610abf81610313565b0390f35b610198565b34610af657610ae0610adb366004610230565b6130e9565b610ae8610192565b80610af281610313565b0390f35b610198565b610b0760055f9061056e565b90565b34610b3a57610b1a3660046101a0565b610b36610b25610afb565b610b2d610192565b918291826101bf565b0390f35b610198565b90602082820312610b5857610b55915f016102ae565b90565b61019c565b610b66906104e4565b90565b90610b7390610b5d565b5f5260205260405f2090565b610b9590610b906008915f92610b69565b61056e565b90565b34610bc857610bc4610bb3610bae366004610b3f565b610b7f565b610bbb610192565b918291826101bf565b0390f35b610198565b610bd960025f906104a8565b90565b34610c0c57610bec3660046101a0565b610c08610bf7610bcd565b610bff610192565b91829182610509565b0390f35b610198565b34610c3f57610c29610c24366004610b3f565b613159565b610c31610192565b80610c3b81610313565b0390f35b610198565b5f80fd5b5f90565b610c54610c48565b50610c5f60096109c4565b90565b5f1c90565b610c73610c7891610c62565b610553565b90565b610c859054610c67565b90565b90565b610c9f610c9a610ca492610c88565b6104c5565b6101af565b90565b610cb3610cb891610c62565b610485565b90565b610cc59054610ca7565b90565b610cd1906104e4565b90565b634e487b7160e01b5f52604160045260245ffd5b90610cf2906103f8565b810190811067ffffffffffffffff821117610d0c57604052565b610cd4565b60e01b90565b90505190610d248261020d565b565b90602082820312610d3f57610d3c915f01610d17565b90565b61019c565b610d4c610192565b3d5f823e3d90fd5b634e487b7160e01b5f52601160045260245ffd5b610d77610d7d919392936101af565b926101af565b91610d898382026101af565b928184041490151715610d9857565b610d54565b634e487b7160e01b5f52601260045260245ffd5b610dbd610dc3916101af565b916101af565b908115610dce570490565b610d9d565b610ddb610c48565b50610de6600a610c7b565b610df8610df25f610c8b565b916101af565b14610ead57610e466020610e14610e0f6002610cbb565b6104f0565b6370a0823190610e3b610e2630610cc8565b92610e2f610192565b95869485938493610d11565b835260048301610714565b03915afa918215610ea857610e7792610e67925f91610e7a575b5090610d68565b610e71600a610c7b565b90610db1565b90565b610e9b915060203d8111610ea1575b610e938183610ce8565b810190610d26565b5f610e60565b503d610e89565b610d44565b50610eb75f610c8b565b90565b610ec6610ecb91610c62565b6106c7565b90565b610ed89054610eba565b90565b60209181520190565b60207f732066756e6374696f6e00000000000000000000000000000000000000000000917f5661756c743a204f6e6c79206d616e616765722063616e2063616c6c207468695f8201520152565b610f3e602a604092610edb565b610f4781610ee4565b0190565b610f609060208101905f818303910152610f31565b90565b15610f6a57565b610f72610192565b62461bcd60e51b815280610f8860048201610f4b565b0390fd5b90610fbe94939291610fb933610fb3610fad610fa86007610ece565b61028e565b9161028e565b14610f63565b61108f565b565b60081c90565b610fd2610fd791610fc0565b6107f6565b90565b610fe49054610fc6565b90565b60207f617665206e6f207368617265686f6c6465727320746f20757064617465000000917f5661756c743a205661756c74206d75737420626520636c6f736564206f7220685f8201520152565b611041603d604092610edb565b61104a81610fe7565b0190565b6110639060208101905f818303910152611034565b90565b1561106d57565b611075610192565b62461bcd60e51b81528061108b6004820161104e565b0390fd5b906110b6949392916110a1600b610fda565b80156110b8575b6110b190611066565b6115e6565b565b506110b16110c660096109c4565b6110d86110d25f610c8b565b916101af565b1490506110a8565b6110f46110ef6110f992610c88565b6104c5565b610283565b90565b611105906110e0565b90565b5f7f5661756c743a20496e76616c696420746f6b656e312061646472657373000000910152565b61113c601d602092610edb565b61114581611108565b0190565b61115e9060208101905f81830391015261112f565b90565b1561116857565b611170610192565b62461bcd60e51b81528061118660048201611149565b0390fd5b5f7f5661756c743a20496e76616c696420746f6b656e322061646472657373000000910152565b6111be601d602092610edb565b6111c78161118a565b0190565b6111e09060208101905f8183039101526111b1565b90565b156111ea57565b6111f2610192565b62461bcd60e51b815280611208600482016111cb565b0390fd5b60207f20646966666572656e7400000000000000000000000000000000000000000000917f5661756c743a20546f6b656e3120616e6420746f6b656e32206d7573742062655f8201520152565b611266602a604092610edb565b61126f8161120c565b0190565b6112889060208101905f818303910152611259565b90565b1561129257565b61129a610192565b62461bcd60e51b8152806112b060048201611273565b0390fd5b60207f6675747572650000000000000000000000000000000000000000000000000000917f5661756c743a2052756e2074696d657374616d70206d75737420626520696e205f8201520152565b61130e6026604092610edb565b611317816112b4565b0190565b6113309060208101905f818303910152611301565b90565b1561133a57565b611342610192565b62461bcd60e51b8152806113586004820161131b565b0390fd5b60207f7465722072756e2074696d657374616d70000000000000000000000000000000917f5661756c743a2053746f702074696d657374616d70206d7573742062652061665f8201520152565b6113b66031604092610edb565b6113bf8161135c565b0190565b6113d89060208101905f8183039101526113a9565b90565b156113e257565b6113ea610192565b62461bcd60e51b815280611400600482016113c3565b0390fd5b60207f67726561746572207468616e2030000000000000000000000000000000000000917f5661756c743a204d6178207368617265686f6c64657273206d757374206265205f8201520152565b61145e602e604092610edb565b61146781611404565b0190565b6114809060208101905f818303910152611451565b90565b1561148a57565b611492610192565b62461bcd60e51b8152806114a86004820161146b565b0390fd5b6114b5906104c8565b90565b6114c1906114ac565b90565b5f1b90565b906114da60018060a01b03916114c4565b9181191691161790565b6114ed906114ac565b90565b90565b9061150861150361150f926114e4565b6114f0565b82546114c9565b9055565b9061151f5f19916114c4565b9181191691161790565b61153d611538611542926101af565b6104c5565b6101af565b90565b90565b9061155d61155861156492611529565b611545565b8254611513565b9055565b60081b90565b9061157b61ff0091611568565b9181191691161790565b61158e9061075e565b90565b90565b906115a96115a46115b092611585565b611591565b825461156e565b9055565b6040906115dd6115e494969593966115d360608401985f8501906101b2565b60208301906101b2565b01906101b2565b565b9390919293611610816116096116036115fe5f6110fc565b61028e565b9161028e565b1415611161565b6116358361162e6116286116235f6110fc565b61028e565b9161028e565b14156111e3565b6116528161164b6116458661028e565b9161028e565b141561128b565b61166e84611668611662426101af565b916101af565b11611333565b61168a8561168461167e876101af565b916101af565b116113db565b6116a6826116a061169a5f610c8b565b916101af565b11611483565b6116b96116b2826114b8565b60026114f3565b6116cc6116c5846114b8565b60036114f3565b6116d7846004611548565b6116e2856005611548565b6116ed826006611548565b6116f85f600b611594565b919293909361174561173361172d7ff0cbb188b930f3bf09c624518e7f2941d5ea707403ce4294204017435ad8226095610b5d565b95610b5d565b9561173c610192565b938493846115b4565b0390a3565b9061175794939291610f8c565b565b606090565b9061178f93929161178a3361178461177e6117796007610ece565b61028e565b9161028e565b14610f63565b611813565b90565b5f7f5661756c743a2052756e20706861736520686173206e6f742073746172746564910152565b6117c560208092610edb565b6117ce81611792565b0190565b6117e79060208101905f8183039101526117b9565b90565b156117f157565b6117f9610192565b62461bcd60e51b81528061180f600482016117d2565b0390fd5b906118459392916118404261183961183361182e6004610c7b565b6101af565b916101af565b10156117ea565b611a3a565b90565b5f7f5661756c743a20496e76616c6964207461726765742061646472657373000000910152565b61187c601d602092610edb565b61188581611848565b0190565b61189e9060208101905f81830391015261186f565b90565b156118a857565b6118b0610192565b62461bcd60e51b8152806118c660048201611889565b0390fd5b905090565b90825f939282370152565b9091826118ea816118f1936118ca565b80936118cf565b0190565b9091611900926118da565b90565b9061191661190f610192565b9283610ce8565b565b67ffffffffffffffff8111611936576119326020916103f8565b0190565b610cd4565b9061194d61194883611918565b611903565b918252565b3d5f1461196d576119623d61193b565b903d5f602084013e5b565b611975611759565b9061196b565b5f7f5661756c743a2043616c6c206661696c65640000000000000000000000000000910152565b6119af6012602092610edb565b6119b88161197b565b0190565b6119d19060208101905f8183039101526119a2565b90565b156119db57565b6119e3610192565b62461bcd60e51b8152806119f9600482016119bc565b0390fd5b9190611a1781611a1081611a1c956103e4565b80956118cf565b6103f8565b0190565b9091611a379260208301925f8185039101526119fd565b90565b9291909250611a6483611a5d611a57611a525f6110fc565b61028e565b9161028e565b14156118a1565b5f808483828691611a7f611a76610192565b938492836118f5565b03925af192611a95611a8f611952565b946119d4565b9091611ac17f92dec9c5ba22cf7fd76851c27b4e3cbe5e909202b4248ed28268faf721d437aa92610b5d565b92611ad6611acd610192565b92839283611a20565b0390a290565b90611aef9291611aea611759565b61175e565b90565b60207f6400000000000000000000000000000000000000000000000000000000000000917f5661756c743a2053746f7020706861736520686173206e6f74207374617274655f8201520152565b611b4c6021604092610edb565b611b5581611af2565b0190565b611b6e9060208101905f818303910152611b3f565b90565b15611b7857565b611b80610192565b62461bcd60e51b815280611b9660048201611b59565b0390fd5b611bc042611bb9611bb3611bae6005610c7b565b6101af565b916101af565b1015611b71565b611bc8611bca565b565b611bef33611be9611be3611bde6007610ece565b61028e565b9161028e565b14610f63565b611bf7611bf9565b565b611c01613190565b611c096121d0565b611c11613212565b565b60207f61636b20746f20746f6b656e3120746f20776974686472617700000000000000917f5661756c743a20616c6c20746f6b656e32206d757374206265207377617020625f8201520152565b611c6d6039604092610edb565b611c7681611c13565b0190565b611c8f9060208101905f818303910152611c60565b90565b15611c9957565b611ca1610192565b62461bcd60e51b815280611cb760048201611c7a565b0390fd5b5f7f5661756c743a204e6f2073686172657320746f20776974686472617700000000910152565b611cef601c602092610edb565b611cf881611cbb565b0190565b611d119060208101905f818303910152611ce2565b90565b15611d1b57565b611d23610192565b62461bcd60e51b815280611d3960048201611cfc565b0390fd5b60207f617720746f000000000000000000000000000000000000000000000000000000917f5661756c743a204e6f207368617265686f6c6465727320746f207769746864725f8201520152565b611d976025604092610edb565b611da081611d3d565b0190565b611db99060208101905f818303910152611d8a565b90565b15611dc357565b611dcb610192565b62461bcd60e51b815280611de160048201611da4565b0390fd5b5f7f5661756c743a205661756c7420697320616c726561647920636c6f7365640000910152565b611e19601e602092610edb565b611e2281611de5565b0190565b611e3b9060208101905f818303910152611e0c565b90565b15611e4557565b611e4d610192565b62461bcd60e51b815280611e6360048201611e26565b0390fd5b5f7f5661756c743a204e6f20746f6b656e7320746f20776974686472617700000000910152565b611e9b601c602092610edb565b611ea481611e67565b0190565b611ebd9060208101905f818303910152611e8e565b90565b15611ec757565b611ecf610192565b62461bcd60e51b815280611ee560048201611ea8565b0390fd5b67ffffffffffffffff8111611f015760208091020190565b610cd4565b90611f18611f1383611ee9565b611903565b918252565b369037565b90611f47611f2f83611f06565b92602080611f3d8693611ee9565b9201910390611f1d565b565b67ffffffffffffffff8111611f615760208091020190565b610cd4565b90611f78611f7383611f49565b611903565b918252565b369037565b90611fa7611f8f83611f66565b92602080611f9d8693611f49565b9201910390611f7d565b565b6001611fb591016101af565b90565b90611fc2826105f3565b811015611fd3576020809102010190565b6109b0565b90611fe29061028e565b9052565b5190565b90611ff482611fe6565b811015612005576020809102010190565b6109b0565b90612014906101af565b9052565b612022905161028e565b90565b61202f90516101af565b90565b61203b906104c8565b90565b61204790612032565b90565b91602061206b92949361206460408201965f8301906101b2565b01906101b2565b565b600190818003010490565b1b90565b919060086120979102916120915f1984612078565b92612078565b9181191691161790565b91906120b76120b26120bf93611529565b611545565b90835461207c565b9055565b6120d5916120cf610c48565b916120a1565b565b5b8181106120e3575050565b806120f05f6001936120c3565b016120d8565b9091828110612105575b505050565b61212361211d61211761212e9561206d565b9261206d565b926109c8565b9182019101906120d7565b5f8080612100565b9068010000000000000000811161215f578161215461215d936109c4565b908281556120f6565b565b610cd4565b5f61216e91612136565b565b634e487b7160e01b5f525f60045260245ffd5b905f036121955761219390612164565b565b612170565b906121a660ff916114c4565b9181191691161790565b906121c56121c06121cc92611585565b611591565b825461219a565b9055565b61221960206121e76121e26003610cbb565b6104f0565b6370a082319061220e6121f930610cc8565b92612202610192565b95869485938493610d11565b835260048301610714565b03915afa801561260057612247915f916125d2575b5061224161223b5f610c8b565b916101af565b14611c92565b61226c612254600a610c7b565b6122666122605f610c8b565b916101af565b11611d14565b61229161227960096109c4565b61228b6122855f610c8b565b916101af565b11611dbc565b6122ac6122a76122a1600b610fda565b1561075e565b611e3e565b6122f560206122c36122be6002610cbb565b6104f0565b6370a08231906122ea6122d530610cc8565b926122de610192565b95869485938493610d11565b835260048301610714565b03915afa9081156125cd575f9161259f575b506123248161231e6123185f610c8b565b916101af565b11611ec0565b61233661233160096109c4565b611f22565b9161234961234460096109c4565b611f82565b906123535f610c8b565b5b8061237061236a61236560096109c4565b6101af565b916101af565b10156123eb576123e6906123a461239261238c600984906109d1565b906106ea565b61239f8891849092611fb8565b611fd8565b6123e16123cf6123ca60086123c46123be600987906109d1565b906106ea565b90610b69565b610c7b565b6123dc8691849092611fea565b61200a565b611fa9565b612354565b5091906123f75f610c8b565b5b8061241361240d612408886105f3565b6101af565b916101af565b101561252d576124649061243061242b878390611fb8565b612018565b61244361243e858490611fea565b612025565b90816124576124515f610c8b565b916101af565b11612469575b5050611fa9565b6123f8565b612487612477838890610d68565b612481600a610c7b565b90610db1565b908161249b6124955f610c8b565b916101af565b116124a7575b5061245d565b6124c46124b35f610c8b565b6124bf60088490610b69565b611548565b6124e16124d96124d46002610cbb565b61203e565b828491613285565b909161250d7f92ccf450a286a957af52509bc1c9939d1a6a481783e142e41e2499f0bb66ebc692610b5d565b92612522612519610192565b9283928361204a565b0390a25f80806124a1565b505050905061254561253e5f610c8b565b600a611548565b6125505f6009612183565b61255b5f600b6121b0565b6125676001600b611594565b7fdf23397ab444d891935a0b305b1552fb235d2bd07043ffc42c6ed3f43a4d8352612590610192565b8061259a81610313565b0390a1565b6125c0915060203d81116125c6575b6125b88183610ce8565b810190610d26565b5f612307565b503d6125ae565b610d44565b6125f3915060203d81116125f9575b6125eb8183610ce8565b810190610d26565b5f61222e565b503d6125e1565b610d44565b61260d611b9a565b565b606090565b60209181520190565b6126279054610eba565b90565b60010190565b9061264d612647612640846109c4565b8093612614565b926109c8565b905f5b81811061265d5750505090565b90919261267d6126776001926126728761261d565b610613565b9461262a565b9101919091612650565b9061269191612630565b90565b906126b46126ad926126a4610192565b93848092612687565b0383610ce8565b565b6126bf90612694565b90565b6126ca61260f565b506126d560096126b6565b90565b5f90565b6126e86126ed91610c62565b6107f6565b90565b6126fa90546126dc565b90565b612705610c48565b5061270e610c48565b50612717610c48565b506127206126d8565b506127296126d8565b50612734600a610c7b565b61277d602061274b6127466002610cbb565b6104f0565b6370a082319061277261275d30610cc8565b92612766610192565b95869485938493610d11565b835260048301610714565b03915afa9081156127e7575f916127b9575b509161279b60096109c4565b916127a6600b6126f0565b916127b1600b610fda565b919493929190565b6127da915060203d81116127e0575b6127d28183610ce8565b810190610d26565b5f61278f565b503d6127c8565b610d44565b6127f46132d3565b6127fc6127fe565b565b61280f61280a5f6110fc565b613341565b565b6128196127ec565b565b5f90565b61282761281b565b506128326001610ece565b90565b9061284892916128436132d3565b612ac4565b565b5f7f5661756c743a20496e76616c696420726563697069656e740000000000000000910152565b61287e6018602092610edb565b6128878161284a565b0190565b6128a09060208101905f818303910152612871565b90565b156128aa57565b6128b2610192565b62461bcd60e51b8152806128c86004820161288b565b0390fd5b60207f616e203000000000000000000000000000000000000000000000000000000000917f5661756c743a20416d6f756e74206d75737420626520677265617465722074685f8201520152565b6129266024604092610edb565b61292f816128cc565b0190565b6129489060208101905f818303910152612919565b90565b1561295257565b61295a610192565b62461bcd60e51b81528061297060048201612933565b0390fd5b60207f6e31000000000000000000000000000000000000000000000000000000000000917f5661756c743a2043616e6e6f74207265636f766572207661756c7420746f6b655f8201520152565b6129ce6022604092610edb565b6129d781612974565b0190565b6129f09060208101905f8183039101526129c1565b90565b156129fa57565b612a02610192565b62461bcd60e51b815280612a18600482016129db565b0390fd5b60207f6e32000000000000000000000000000000000000000000000000000000000000917f5661756c743a2043616e6e6f74207265636f766572207661756c7420746f6b655f8201520152565b612a766022604092610edb565b612a7f81612a1c565b0190565b612a989060208101905f818303910152612a69565b90565b15612aa257565b612aaa610192565b62461bcd60e51b815280612ac060048201612a83565b0390fd5b91612b76612b71612b7e94612af485612aed612ae7612ae25f6110fc565b61028e565b9161028e565b14156128a3565b612b1084612b0a612b045f610c8b565b916101af565b1161294b565b612b3e81612b37612b31612b2c612b276002610cbb565b6104f0565b61028e565b9161028e565b14156129f3565b612b6c81612b65612b5f612b5a612b556003610cbb565b6104f0565b61028e565b9161028e565b1415612a9b565b6114b8565b61203e565b919091613285565b565b90612b8b9291612835565b565b5f7f5661756c743a2052756e20706861736520686173207374617274656400000000910152565b612bc1601c602092610edb565b612bca81612b8d565b0190565b612be39060208101905f818303910152612bb4565b90565b15612bed57565b612bf5610192565b62461bcd60e51b815280612c0b60048201612bce565b0390fd5b612c3d90612c3842612c32612c2c612c276004610c7b565b6101af565b916101af565b10612be6565b612ce7565b565b60207f6865640000000000000000000000000000000000000000000000000000000000917f5661756c743a204d6178696d756d207368617265686f6c6465727320726561635f8201520152565b612c996023604092610edb565b612ca281612c3f565b0190565b612cbb9060208101905f818303910152612c8c565b90565b15612cc557565b612ccd610192565b62461bcd60e51b815280612ce360048201612ca6565b0390fd5b612d1e90612d19612cf860096109c4565b612d13612d0d612d086006610c7b565b6101af565b916101af565b10612cbe565b612d20565b565b612d3190612d2c613190565b612f20565b612d39613212565b565b5f7f5661756c743a204465706f736974732061726520636c6f736564000000000000910152565b612d6f601a602092610edb565b612d7881612d3b565b0190565b612d919060208101905f818303910152612d62565b90565b15612d9b57565b612da3610192565b62461bcd60e51b815280612db960048201612d7c565b0390fd5b5f7f5661756c743a205661756c7420697320636c6f73656400000000000000000000910152565b612df16016602092610edb565b612dfa81612dbd565b0190565b612e139060208101905f818303910152612de4565b90565b15612e1d57565b612e25610192565b62461bcd60e51b815280612e3b60048201612dfe565b0390fd5b612e4e612e54919392936101af565b926101af565b8201809211612e5f57565b610d54565b90565b5f5260205f2090565b5490565b612e7d81612e70565b821015612e9757612e8f600191612e67565b910201905f90565b6109b0565b91906008612ebc910291612eb660018060a01b0384612078565b92612078565b9181191691161790565b90565b9190612edf612eda612ee793610b5d565b612ec6565b908354612e9c565b9055565b9081549168010000000000000000831015612f1b5782612f13916001612f1995018155612e74565b90612ec9565b565b610cd4565b612f3c81612f36612f305f610c8b565b916101af565b1161294b565b612f57612f52612f4c600b6126f0565b1561075e565b612d94565b612f72612f6d612f67600b610fda565b1561075e565b612e16565b612f99612f87612f826002610cbb565b61203e565b33612f9130610cc8565b9084926133d4565b80612fb8612fb1612faa600a610c7b565b8490612e3f565b600a611548565b612fcc612fc760083390610b69565b610c7b565b612fde612fd85f610c8b565b916101af565b146130d0575b613016613005612ffe612ff960083390610b69565b610c7b565b8490612e3f565b61301160083390610b69565b611548565b3390916130437f73a19dd210f1a7f902193214c0ee91dd35ee5b4d920cba8d519eca65a7b488ca92610b5d565b9261305861304f610192565b9283928361204a565b0390a261306560096109c4565b61308061307a6130756006610c7b565b6101af565b916101af565b1015613089575b565b6130956001600b6121b0565b7f1a8ade30f60946b8fb7b4d1cf93dc594fa0e441eca24e1b9b88cfa375e3488b16130be610192565b806130c881610313565b0390a1613087565b6130e46130dd6009612e64565b3390612eeb565b612fe4565b6130f290612c0f565b565b613105906131006132d3565b613107565b565b8061312261311c6131175f6110fc565b61028e565b9161028e565b146131325761313090613341565b565b61315561313e5f6110fc565b5f918291631e4fbdf760e01b835260048301610714565b0390fd5b613162906130f4565b565b90565b61317b61317661318092613164565b6104c5565b6101af565b90565b61318d6002613167565b90565b6131995f610c7b565b6131b26131ac6131a7613183565b6101af565b916101af565b146131ca576131c86131c2613183565b5f611548565b565b5f633ee5aeb560e01b8152806131e260048201610313565b0390fd5b90565b6131fd6131f8613202926131e6565b6104c5565b6101af565b90565b61320f60016131e9565b90565b61322361321d613205565b5f611548565b565b61322e906104e4565b90565b63ffffffff1690565b63ffffffff60e01b1690565b61325a61325561325f92613231565b610d11565b61323a565b90565b91602061328392949361327c60408201965f830190610707565b01906101b2565b565b906132cc6132d1936132bd600494936132a463a9059cbb919391613246565b926132ad610192565b9687946020860190815201613262565b60208201810382520383610ce8565b613424565b565b6132db61281f565b6132f46132ee6132e96134d8565b61028e565b9161028e565b036132fb57565b61331d6133066134d8565b5f91829163118cdaa760e01b835260048301610714565b0390fd5b9061333661333161333d92610b5d565b612ec6565b82546114c9565b9055565b61334b6001610ece565b613356826001613321565b9061338a6133847f8be0079c531659141344cd1fd0a4f28419497f9722a3daafe3b4186f6b6457e093610b5d565b91610b5d565b91613393610192565b8061339d81610313565b0390a3565b6040906133cb6133d294969593966133c160608401985f850190610707565b6020830190610707565b01906101b2565b565b60049261340e613422959361341d93946133f56323b872dd92949192613246565b936133fe610192565b97889560208701908152016133a2565b60208201810382520383610ce8565b613424565b565b905f602091613431610c48565b5061343a610c48565b50828151910182855af1156134cd573d5f519061345f6134595f610c8b565b916101af565b145f146134b3575061347081613225565b3b61348361347d5f610c8b565b916101af565b145b61348c5750565b6134986134af91613225565b5f918291635274afe760e01b835260048301610714565b0390fd5b6134c66134c060016131e9565b916101af565b1415613485565b6040513d5f823e3d90fd5b6134e061281b565b50339056fea2646970667358221220bbd1b71efea32f4f9838213998ffed273b86edcf9a5adac6f93710ffc282596764736f6c634300081e0033","linkReferences":{}},"methodIdentifiers":{"calculateWithdrawalAmount(uint256)":"0e1a0399","deposit(uint256)":"b6b55f25","depositsClosed()":"a369b0ac","emergencyRecover(address,address,uint256)":"ad1329d1","execute(address,bytes)":"1cff79cd","getShareholderCount()":"04972881","getShareholders()":"41ca641e","getVaultState()":"4a8c110a","manager()":"481c6a75","maxShareholders()":"9b185e0a","owner()":"8da5cb5b","renounceOwnership()":"715018a6","runTimestamp()":"87323956","shareholders(uint256)":"ab377daa","shares(address)":"ce7c2ac2","stopTimestamp()":"c5a22216","token1()":"d21220a7","token2()":"25be124e","totalShares()":"3a98ef39","transferOwnership(address)":"f2fde38b","updateVault(address,address,uint256,uint256,uint256)":"10528294","vaultClosed()":"5c9920fc","withdraw()":"3ccfd60b"},"id":28}